{
  "contractName": "TodoList",
  "abi": [
    {
      "inputs": [],
      "stateMutability": "nonpayable",
      "type": "constructor"
    },
    {
      "anonymous": false,
      "inputs": [
        {
          "indexed": false,
          "internalType": "uint256",
          "name": "id",
          "type": "uint256"
        },
        {
          "indexed": false,
          "internalType": "bool",
          "name": "completed",
          "type": "bool"
        }
      ],
      "name": "TaskCompleted",
      "type": "event"
    },
    {
      "anonymous": false,
      "inputs": [
        {
          "indexed": false,
          "internalType": "uint256",
          "name": "id",
          "type": "uint256"
        },
        {
          "indexed": false,
          "internalType": "string",
          "name": "content",
          "type": "string"
        },
        {
          "indexed": false,
          "internalType": "bool",
          "name": "completed",
          "type": "bool"
        }
      ],
      "name": "TaskCreated",
      "type": "event"
    },
    {
      "anonymous": false,
      "inputs": [
        {
          "indexed": false,
          "internalType": "uint256",
          "name": "id",
          "type": "uint256"
        }
      ],
      "name": "TaskDeleted",
      "type": "event"
    },
    {
      "inputs": [],
      "name": "taskCount",
      "outputs": [
        {
          "internalType": "uint256",
          "name": "",
          "type": "uint256"
        }
      ],
      "stateMutability": "view",
      "type": "function",
      "constant": true
    },
    {
      "inputs": [
        {
          "internalType": "uint256",
          "name": "",
          "type": "uint256"
        }
      ],
      "name": "tasks",
      "outputs": [
        {
          "internalType": "uint256",
          "name": "id",
          "type": "uint256"
        },
        {
          "internalType": "string",
          "name": "content",
          "type": "string"
        },
        {
          "internalType": "bool",
          "name": "completed",
          "type": "bool"
        },
        {
          "internalType": "bool",
          "name": "isDeleted",
          "type": "bool"
        }
      ],
      "stateMutability": "view",
      "type": "function",
      "constant": true
    },
    {
      "inputs": [
        {
          "internalType": "string",
          "name": "_content",
          "type": "string"
        }
      ],
      "name": "createTask",
      "outputs": [],
      "stateMutability": "nonpayable",
      "type": "function"
    },
    {
      "inputs": [
        {
          "internalType": "uint256",
          "name": "_id",
          "type": "uint256"
        }
      ],
      "name": "toggleCompleted",
      "outputs": [],
      "stateMutability": "nonpayable",
      "type": "function"
    },
    {
      "inputs": [
        {
          "internalType": "uint256",
          "name": "_id",
          "type": "uint256"
        }
      ],
      "name": "getTask",
      "outputs": [
        {
          "internalType": "uint256",
          "name": "id",
          "type": "uint256"
        },
        {
          "internalType": "string",
          "name": "content",
          "type": "string"
        },
        {
          "internalType": "bool",
          "name": "completed",
          "type": "bool"
        },
        {
          "internalType": "bool",
          "name": "isDeleted",
          "type": "bool"
        }
      ],
      "stateMutability": "view",
      "type": "function",
      "constant": true
    },
    {
      "inputs": [
        {
          "internalType": "uint256",
          "name": "_id",
          "type": "uint256"
        }
      ],
      "name": "deleteTask",
      "outputs": [],
      "stateMutability": "nonpayable",
      "type": "function"
    }
  ],
  "bytecode": "0x608060405234801561001057600080fd5b506000600181905550610ad0806100286000396000f3fe608060405234801561001057600080fd5b50600436106100625760003560e01c8063111002aa146100675780631d65e77e14610083578063455f5024146100b6578063560f3192146100d25780638d977672146100ee578063b6cb58a514610121575b600080fd5b610081600480360381019061007c91906106a6565b61013f565b005b61009d600480360381019061009891906106e7565b61023f565b6040516100ad9493929190610849565b60405180910390f35b6100d060048036038101906100cb91906106e7565b61035d565b005b6100ec60048036038101906100e791906106e7565b6103ef565b005b610108600480360381019061010391906106e7565b6104ae565b6040516101189493929190610849565b60405180910390f35b610129610580565b60405161013691906107c7565b60405180910390f35b600160008154809291906101529061099c565b9190505550604051806080016040528060015481526020018281526020016000151581526020016000151581525060008060015481526020019081526020016000206000820151816000015560208201518160010190805190602001906101ba929190610586565b5060408201518160020160006101000a81548160ff02191690831515021790555060608201518160020160016101000a81548160ff0219169083151502179055509050507f05d0fb833127fc08168556d0e7ca9554fc3f6bc843b3b7d2bf1c35aea6bab6606001548260006040516102349392919061080b565b60405180910390a150565b6000606060008060008060008781526020019081526020016000206040518060800160405290816000820154815260200160018201805461027f9061096a565b80601f01602080910402602001604051908101604052809291908181526020018280546102ab9061096a565b80156102f85780601f106102cd576101008083540402835291602001916102f8565b820191906000526020600020905b8154815290600101906020018083116102db57829003601f168201915b505050505081526020016002820160009054906101000a900460ff161515151581526020016002820160019054906101000a900460ff161515151581525050905080600001518160200151826040015183606001519450945094509450509193509193565b600080600083815260200190815260200160002090508060020160009054906101000a900460ff16158160020160006101000a81548160ff0219169083151502179055507fe21fa966ca5cd02748c0752352d18c48165e61cb55b4c29cccf924b5a95fcff1828260020160009054906101000a900460ff166040516103e39291906107e2565b60405180910390a15050565b60008111801561040157506001548111155b610440576040517f08c379a0000000000000000000000000000000000000000000000000000000008152600401610437906107a7565b60405180910390fd5b6000806000838152602001908152602001600020905060018160020160016101000a81548160ff0219169083151502179055507fd078b251d950cc55c44340be1db732337ef4939a76e1367ee271ad2cb19c46af826040516104a291906107c7565b60405180910390a15050565b60006020528060005260406000206000915090508060000154908060010180546104d79061096a565b80601f01602080910402602001604051908101604052809291908181526020018280546105039061096a565b80156105505780601f1061052557610100808354040283529160200191610550565b820191906000526020600020905b81548152906001019060200180831161053357829003601f168201915b5050505050908060020160009054906101000a900460ff16908060020160019054906101000a900460ff16905084565b60015481565b8280546105929061096a565b90600052602060002090601f0160209004810192826105b457600085556105fb565b82601f106105cd57805160ff19168380011785556105fb565b828001600101855582156105fb579182015b828111156105fa5782518255916020019190600101906105df565b5b509050610608919061060c565b5090565b5b8082111561062557600081600090555060010161060d565b5090565b600061063c610637846108c6565b610895565b90508281526020810184848401111561065457600080fd5b61065f848285610928565b509392505050565b600082601f83011261067857600080fd5b8135610688848260208601610629565b91505092915050565b6000813590506106a081610a83565b92915050565b6000602082840312156106b857600080fd5b600082013567ffffffffffffffff8111156106d257600080fd5b6106de84828501610667565b91505092915050565b6000602082840312156106f957600080fd5b600061070784828501610691565b91505092915050565b61071981610912565b82525050565b600061072a826108f6565b6107348185610901565b9350610744818560208601610937565b61074d81610a72565b840191505092915050565b6000610765600f83610901565b91507f496e76616c6964207461736b20494400000000000000000000000000000000006000830152602082019050919050565b6107a18161091e565b82525050565b600060208201905081810360008301526107c081610758565b9050919050565b60006020820190506107dc6000830184610798565b92915050565b60006040820190506107f76000830185610798565b6108046020830184610710565b9392505050565b60006060820190506108206000830186610798565b8181036020830152610832818561071f565b90506108416040830184610710565b949350505050565b600060808201905061085e6000830187610798565b8181036020830152610870818661071f565b905061087f6040830185610710565b61088c6060830184610710565b95945050505050565b6000604051905081810181811067ffffffffffffffff821117156108bc576108bb610a43565b5b8060405250919050565b600067ffffffffffffffff8211156108e1576108e0610a43565b5b601f19601f8301169050602081019050919050565b600081519050919050565b600082825260208201905092915050565b60008115159050919050565b6000819050919050565b82818337600083830152505050565b60005b8381101561095557808201518184015260208101905061093a565b83811115610964576000848401525b50505050565b6000600282049050600182168061098257607f821691505b6020821081141561099657610995610a14565b5b50919050565b60006109a78261091e565b91507fffffffffffffffffffffffffffffffffffffffffffffffffffffffffffffffff8214156109da576109d96109e5565b5b600182019050919050565b7f4e487b7100000000000000000000000000000000000000000000000000000000600052601160045260246000fd5b7f4e487b7100000000000000000000000000000000000000000000000000000000600052602260045260246000fd5b7f4e487b7100000000000000000000000000000000000000000000000000000000600052604160045260246000fd5b6000601f19601f8301169050919050565b610a8c8161091e565b8114610a9757600080fd5b5056fea264697066735822122011336f7a1b7edce90d4c2d248a9d1c40b35f28e85c29e88f3b2966c679c412d364736f6c63430008000033",
  "immutableReferences": {},
  "source": "// SPDX-License-Identifier: MIT\npragma solidity ^0.8.0;\n\ncontract TodoList {\n    struct Task {\n        uint id;\n        string content;\n        bool completed;\n        bool isDeleted;  // Added isDeleted field\n    }\n\n    mapping(uint => Task) public tasks;\n    uint public taskCount;\n\n    event TaskCreated(uint id, string content, bool completed);\n    event TaskCompleted(uint id, bool completed);\n    event TaskDeleted(uint id);\n\n    constructor() {\n        taskCount = 0;\n    }\n\n    function createTask(string memory _content) public {\n        taskCount++;\n        tasks[taskCount] = Task(taskCount, _content, false, false);  // Initialize isDeleted as false\n        emit TaskCreated(taskCount, _content, false);\n    }\n\n    function toggleCompleted(uint _id) public {\n        Task storage _task = tasks[_id];\n        _task.completed = !_task.completed;\n        emit TaskCompleted(_id, _task.completed);\n    }\n\n    function getTask(uint _id) public view returns (uint id, string memory content, bool completed, bool isDeleted) {\n        Task memory _task = tasks[_id];\n        return (_task.id, _task.content, _task.completed, _task.isDeleted);  // Return isDeleted as well\n    }\n\n    function deleteTask(uint _id) public {\n        require(_id > 0 && _id <= taskCount, \"Invalid task ID\");\n        Task storage _task = tasks[_id];\n        _task.isDeleted = true;\n        emit TaskDeleted(_id);\n    }\n}\n",
  "sourcePath": "/home/itachi/Projects/DAPP-React/todo-dapp/contracts/TodoList.sol",
  "compiler": {
    "name": "solc",
    "version": "0.8.0+commit.c7dfd78e.Emscripten.clang"
  },
  "schemaVersion": "3.4.16",
  "updatedAt": "2025-01-15T06:56:16.848Z",
  "networkType": "ethereum",
  "devdoc": {
    "kind": "dev",
    "methods": {},
    "version": 1
  },
  "userdoc": {
    "kind": "user",
    "methods": {},
    "version": 1
  }
}