{
  "contractName": "TodoList",
  "abi": [
    {
      "inputs": [],
      "stateMutability": "nonpayable",
      "type": "constructor"
    },
    {
      "anonymous": false,
      "inputs": [
        {
          "indexed": false,
          "internalType": "uint256",
          "name": "id",
          "type": "uint256"
        },
        {
          "indexed": false,
          "internalType": "bool",
          "name": "completed",
          "type": "bool"
        }
      ],
      "name": "TaskCompleted",
      "type": "event"
    },
    {
      "anonymous": false,
      "inputs": [
        {
          "indexed": false,
          "internalType": "uint256",
          "name": "id",
          "type": "uint256"
        },
        {
          "indexed": false,
          "internalType": "string",
          "name": "content",
          "type": "string"
        },
        {
          "indexed": false,
          "internalType": "bool",
          "name": "completed",
          "type": "bool"
        }
      ],
      "name": "TaskCreated",
      "type": "event"
    },
    {
      "anonymous": false,
      "inputs": [
        {
          "indexed": false,
          "internalType": "uint256",
          "name": "id",
          "type": "uint256"
        }
      ],
      "name": "TaskDeleted",
      "type": "event"
    },
    {
      "inputs": [],
      "name": "taskCount",
      "outputs": [
        {
          "internalType": "uint256",
          "name": "",
          "type": "uint256"
        }
      ],
      "stateMutability": "view",
      "type": "function",
      "constant": true
    },
    {
      "inputs": [
        {
          "internalType": "uint256",
          "name": "",
          "type": "uint256"
        }
      ],
      "name": "tasks",
      "outputs": [
        {
          "internalType": "uint256",
          "name": "id",
          "type": "uint256"
        },
        {
          "internalType": "string",
          "name": "content",
          "type": "string"
        },
        {
          "internalType": "bool",
          "name": "completed",
          "type": "bool"
        }
      ],
      "stateMutability": "view",
      "type": "function",
      "constant": true
    },
    {
      "inputs": [
        {
          "internalType": "string",
          "name": "_content",
          "type": "string"
        }
      ],
      "name": "createTask",
      "outputs": [],
      "stateMutability": "nonpayable",
      "type": "function"
    },
    {
      "inputs": [
        {
          "internalType": "uint256",
          "name": "_id",
          "type": "uint256"
        }
      ],
      "name": "toggleCompleted",
      "outputs": [],
      "stateMutability": "nonpayable",
      "type": "function"
    },
    {
      "inputs": [
        {
          "internalType": "uint256",
          "name": "_id",
          "type": "uint256"
        }
      ],
      "name": "getTask",
      "outputs": [
        {
          "internalType": "uint256",
          "name": "id",
          "type": "uint256"
        },
        {
          "internalType": "string",
          "name": "content",
          "type": "string"
        },
        {
          "internalType": "bool",
          "name": "completed",
          "type": "bool"
        }
      ],
      "stateMutability": "view",
      "type": "function",
      "constant": true
    },
    {
      "inputs": [
        {
          "internalType": "uint256",
          "name": "_id",
          "type": "uint256"
        }
      ],
      "name": "deleteTask",
      "outputs": [],
      "stateMutability": "nonpayable",
      "type": "function"
    }
  ],
  "bytecode": "0x608060405234801561001057600080fd5b506000600181905550610b68806100286000396000f3fe608060405234801561001057600080fd5b50600436106100625760003560e01c8063111002aa146100675780631d65e77e14610083578063455f5024146100b5578063560f3192146100d15780638d977672146100ed578063b6cb58a51461011f575b600080fd5b610081600480360381019061007c919061078a565b61013d565b005b61009d600480360381019061009891906107cb565b610214565b6040516100ac939291906108ef565b60405180910390f35b6100cf60048036038101906100ca91906107cb565b61030e565b005b6100eb60048036038101906100e691906107cb565b610499565b005b610107600480360381019061010291906107cb565b610565565b604051610116939291906108ef565b60405180910390f35b610127610624565b60405161013491906108ab565b60405180910390f35b6001600081548092919061015090610a34565b9190505550604051806060016040528060015481526020018281526020016000151581525060008060015481526020019081526020016000206000820151816000015560208201518160010190805190602001906101af92919061062a565b5060408201518160020160006101000a81548160ff0219169083151502179055509050507f05d0fb833127fc08168556d0e7ca9554fc3f6bc843b3b7d2bf1c35aea6bab660600154826000604051610209939291906108ef565b60405180910390a150565b600060606000806000808681526020019081526020016000206040518060600160405290816000820154815260200160018201805461025290610a02565b80601f016020809104026020016040519081016040528092919081815260200182805461027e90610a02565b80156102cb5780601f106102a0576101008083540402835291602001916102cb565b820191906000526020600020905b8154815290600101906020018083116102ae57829003601f168201915b505050505081526020016002820160009054906101000a900460ff1615151515815250509050806000015181602001518260400151935093509350509193909250565b60008060008381526020019081526020016000206040518060600160405290816000820154815260200160018201805461034790610a02565b80601f016020809104026020016040519081016040528092919081815260200182805461037390610a02565b80156103c05780601f10610395576101008083540402835291602001916103c0565b820191906000526020600020905b8154815290600101906020018083116103a357829003601f168201915b505050505081526020016002820160009054906101000a900460ff16151515158152505090508060400151158160400190151590811515815250508060008084815260200190815260200160002060008201518160000155602082015181600101908051906020019061043492919061062a565b5060408201518160020160006101000a81548160ff0219169083151502179055509050507fe21fa966ca5cd02748c0752352d18c48165e61cb55b4c29cccf924b5a95fcff182826040015160405161048d9291906108c6565b60405180910390a15050565b6000811180156104ab57506001548111155b6104ea576040517f08c379a00000000000000000000000000000000000000000000000000000000081526004016104e19061088b565b60405180910390fd5b60008082815260200190815260200160002060008082016000905560018201600061051591906106b0565b6002820160006101000a81549060ff021916905550507fd078b251d950cc55c44340be1db732337ef4939a76e1367ee271ad2cb19c46af8160405161055a91906108ab565b60405180910390a150565b600060205280600052604060002060009150905080600001549080600101805461058e90610a02565b80601f01602080910402602001604051908101604052809291908181526020018280546105ba90610a02565b80156106075780601f106105dc57610100808354040283529160200191610607565b820191906000526020600020905b8154815290600101906020018083116105ea57829003601f168201915b5050505050908060020160009054906101000a900460ff16905083565b60015481565b82805461063690610a02565b90600052602060002090601f016020900481019282610658576000855561069f565b82601f1061067157805160ff191683800117855561069f565b8280016001018555821561069f579182015b8281111561069e578251825591602001919060010190610683565b5b5090506106ac91906106f0565b5090565b5080546106bc90610a02565b6000825580601f106106ce57506106ed565b601f0160209004906000526020600020908101906106ec91906106f0565b5b50565b5b808211156107095760008160009055506001016106f1565b5090565b600061072061071b8461095e565b61092d565b90508281526020810184848401111561073857600080fd5b6107438482856109c0565b509392505050565b600082601f83011261075c57600080fd5b813561076c84826020860161070d565b91505092915050565b60008135905061078481610b1b565b92915050565b60006020828403121561079c57600080fd5b600082013567ffffffffffffffff8111156107b657600080fd5b6107c28482850161074b565b91505092915050565b6000602082840312156107dd57600080fd5b60006107eb84828501610775565b91505092915050565b6107fd816109aa565b82525050565b600061080e8261098e565b6108188185610999565b93506108288185602086016109cf565b61083181610b0a565b840191505092915050565b6000610849600f83610999565b91507f496e76616c6964207461736b20494400000000000000000000000000000000006000830152602082019050919050565b610885816109b6565b82525050565b600060208201905081810360008301526108a48161083c565b9050919050565b60006020820190506108c0600083018461087c565b92915050565b60006040820190506108db600083018561087c565b6108e860208301846107f4565b9392505050565b6000606082019050610904600083018661087c565b81810360208301526109168185610803565b905061092560408301846107f4565b949350505050565b6000604051905081810181811067ffffffffffffffff8211171561095457610953610adb565b5b8060405250919050565b600067ffffffffffffffff82111561097957610978610adb565b5b601f19601f8301169050602081019050919050565b600081519050919050565b600082825260208201905092915050565b60008115159050919050565b6000819050919050565b82818337600083830152505050565b60005b838110156109ed5780820151818401526020810190506109d2565b838111156109fc576000848401525b50505050565b60006002820490506001821680610a1a57607f821691505b60208210811415610a2e57610a2d610aac565b5b50919050565b6000610a3f826109b6565b91507fffffffffffffffffffffffffffffffffffffffffffffffffffffffffffffffff821415610a7257610a71610a7d565b5b600182019050919050565b7f4e487b7100000000000000000000000000000000000000000000000000000000600052601160045260246000fd5b7f4e487b7100000000000000000000000000000000000000000000000000000000600052602260045260246000fd5b7f4e487b7100000000000000000000000000000000000000000000000000000000600052604160045260246000fd5b6000601f19601f8301169050919050565b610b24816109b6565b8114610b2f57600080fd5b5056fea26469706673582212206623173e17ef0b8064e3c1264d0b621ea75a71bf1ebab04d8599fdf4cb372dae64736f6c63430008000033",
  "immutableReferences": {},
  "source": "// SPDX-License-Identifier: MIT\npragma solidity ^0.8.0;\n\ncontract TodoList {\n    struct Task {\n        uint id;\n        string content;\n        bool completed;\n    }\n\n    mapping(uint => Task) public tasks;\n    uint public taskCount;\n\n    event TaskCreated(uint id, string content, bool completed);\n    event TaskCompleted(uint id, bool completed);\n    event TaskDeleted(uint id);  // Added missing event declaration\n\n    constructor() {\n        taskCount = 0;\n    }\n\n    function createTask(string memory _content) public {\n        taskCount++;\n        tasks[taskCount] = Task(taskCount, _content, false);\n        emit TaskCreated(taskCount, _content, false);\n    }\n\n    function toggleCompleted(uint _id) public {\n        Task memory _task = tasks[_id];\n        _task.completed = !_task.completed;\n        tasks[_id] = _task;\n        emit TaskCompleted(_id, _task.completed);\n    }\n\n    function getTask(uint _id) public view returns (uint id, string memory content, bool completed) {\n        Task memory _task = tasks[_id];\n        return (_task.id, _task.content, _task.completed);\n    }\n\n    function deleteTask(uint _id) public {\n        require(_id > 0 && _id <= taskCount, \"Invalid task ID\");\n        delete tasks[_id];\n        emit TaskDeleted(_id);\n    }\n}",
  "sourcePath": "/home/itachi/Projects/DAPP-React/todo-dapp/contracts/TodoList.sol",
  "compiler": {
    "name": "solc",
    "version": "0.8.0+commit.c7dfd78e.Emscripten.clang"
  },
  "schemaVersion": "3.4.16",
  "updatedAt": "2025-01-15T06:03:18.061Z",
  "networkType": "ethereum",
  "devdoc": {
    "kind": "dev",
    "methods": {},
    "version": 1
  },
  "userdoc": {
    "kind": "user",
    "methods": {},
    "version": 1
  }
}